{
  "contractName": "LANDGiveaway",
  "abi": [
    {
      "constant": true,
      "inputs": [
        {
          "name": "",
          "type": "int256"
        },
        {
          "name": "",
          "type": "int256"
        }
      ],
      "name": "rentedTo",
      "outputs": [
        {
          "name": "",
          "type": "address"
        }
      ],
      "payable": false,
      "stateMutability": "view",
      "type": "function"
    },
    {
      "constant": true,
      "inputs": [],
      "name": "rentedLands",
      "outputs": [
        {
          "name": "",
          "type": "uint256"
        }
      ],
      "payable": false,
      "stateMutability": "view",
      "type": "function"
    },
    {
      "constant": false,
      "inputs": [],
      "name": "renounceOwnership",
      "outputs": [],
      "payable": false,
      "stateMutability": "nonpayable",
      "type": "function"
    },
    {
      "constant": true,
      "inputs": [],
      "name": "land",
      "outputs": [
        {
          "name": "",
          "type": "address"
        }
      ],
      "payable": false,
      "stateMutability": "view",
      "type": "function"
    },
    {
      "constant": true,
      "inputs": [],
      "name": "owner",
      "outputs": [
        {
          "name": "",
          "type": "address"
        }
      ],
      "payable": false,
      "stateMutability": "view",
      "type": "function"
    },
    {
      "constant": true,
      "inputs": [
        {
          "name": "",
          "type": "int256"
        },
        {
          "name": "",
          "type": "int256"
        }
      ],
      "name": "expires",
      "outputs": [
        {
          "name": "",
          "type": "uint256"
        }
      ],
      "payable": false,
      "stateMutability": "view",
      "type": "function"
    },
    {
      "constant": true,
      "inputs": [],
      "name": "rentTime",
      "outputs": [
        {
          "name": "",
          "type": "uint256"
        }
      ],
      "payable": false,
      "stateMutability": "view",
      "type": "function"
    },
    {
      "constant": false,
      "inputs": [
        {
          "name": "_newOwner",
          "type": "address"
        }
      ],
      "name": "transferOwnership",
      "outputs": [],
      "payable": false,
      "stateMutability": "nonpayable",
      "type": "function"
    },
    {
      "anonymous": false,
      "inputs": [
        {
          "indexed": true,
          "name": "x",
          "type": "int256"
        },
        {
          "indexed": true,
          "name": "y",
          "type": "int256"
        },
        {
          "indexed": true,
          "name": "beneficiary",
          "type": "address"
        },
        {
          "indexed": false,
          "name": "untilTime",
          "type": "uint256"
        }
      ],
      "name": "Rented",
      "type": "event"
    },
    {
      "anonymous": false,
      "inputs": [
        {
          "indexed": true,
          "name": "x",
          "type": "int256"
        },
        {
          "indexed": true,
          "name": "y",
          "type": "int256"
        },
        {
          "indexed": true,
          "name": "beneficiary",
          "type": "address"
        },
        {
          "indexed": false,
          "name": "when",
          "type": "uint256"
        }
      ],
      "name": "Returned",
      "type": "event"
    },
    {
      "anonymous": false,
      "inputs": [
        {
          "indexed": true,
          "name": "previousOwner",
          "type": "address"
        }
      ],
      "name": "OwnershipRenounced",
      "type": "event"
    },
    {
      "anonymous": false,
      "inputs": [
        {
          "indexed": true,
          "name": "previousOwner",
          "type": "address"
        },
        {
          "indexed": true,
          "name": "newOwner",
          "type": "address"
        }
      ],
      "name": "OwnershipTransferred",
      "type": "event"
    },
    {
      "constant": true,
      "inputs": [],
      "name": "availableLand",
      "outputs": [
        {
          "name": "",
          "type": "int256[]"
        },
        {
          "name": "",
          "type": "int256[]"
        }
      ],
      "payable": false,
      "stateMutability": "view",
      "type": "function"
    },
    {
      "constant": false,
      "inputs": [
        {
          "name": "x",
          "type": "int256"
        },
        {
          "name": "y",
          "type": "int256"
        }
      ],
      "name": "getLand",
      "outputs": [],
      "payable": false,
      "stateMutability": "nonpayable",
      "type": "function"
    },
    {
      "constant": false,
      "inputs": [
        {
          "name": "time",
          "type": "uint256"
        }
      ],
      "name": "setRentTime",
      "outputs": [],
      "payable": false,
      "stateMutability": "nonpayable",
      "type": "function"
    },
    {
      "constant": true,
      "inputs": [],
      "name": "reclaimableLand",
      "outputs": [
        {
          "name": "",
          "type": "uint256"
        }
      ],
      "payable": false,
      "stateMutability": "view",
      "type": "function"
    },
    {
      "constant": false,
      "inputs": [
        {
          "name": "x",
          "type": "int256"
        },
        {
          "name": "y",
          "type": "int256"
        }
      ],
      "name": "reclaimLand",
      "outputs": [],
      "payable": false,
      "stateMutability": "nonpayable",
      "type": "function"
    },
    {
      "constant": false,
      "inputs": [
        {
          "name": "x",
          "type": "int256"
        },
        {
          "name": "y",
          "type": "int256"
        }
      ],
      "name": "returnLand",
      "outputs": [],
      "payable": false,
      "stateMutability": "nonpayable",
      "type": "function"
    },
    {
      "constant": true,
      "inputs": [],
      "name": "rentedLand",
      "outputs": [
        {
          "name": "xs",
          "type": "int256[]"
        },
        {
          "name": "ys",
          "type": "int256[]"
        }
      ],
      "payable": false,
      "stateMutability": "view",
      "type": "function"
    },
    {
      "constant": false,
      "inputs": [
        {
          "name": "",
          "type": "address"
        },
        {
          "name": "",
          "type": "address"
        },
        {
          "name": "",
          "type": "uint256"
        },
        {
          "name": "",
          "type": "bytes"
        }
      ],
      "name": "onERC721Received",
      "outputs": [
        {
          "name": "",
          "type": "bytes4"
        }
      ],
      "payable": false,
      "stateMutability": "nonpayable",
      "type": "function"
    }
  ],
  "bytecode": "0x60806040526201518060045560058054600160a060020a03199081167309ea84f780cfc6b10bafe7b26c8f7b1f3d2da1121790915560008054909116331790556112398061004e6000396000f3006080604052600436106100d75763ffffffff60e060020a6000350416630ccf30f181146100dc5780631361a19e146100f6578063150b7a02146101115780631d6477e1146101b557806324ea4410146101dc5780634abc31f614610213578063715018a6146102285780638c9801291461023d5780638da5cb5b146102525780639cef887314610267578063a03df05114610282578063bc48f4be14610330578063ca5c7a3414610357578063cb9a5edd14610372578063cedeafb914610387578063e3bbfd3f146103a2578063f2fde38b146103b7575b600080fd5b3480156100e857600080fd5b506100f46004356103d8565b005b34801561010257600080fd5b506100f46004356024356103f4565b34801561011d57600080fd5b50604080516020601f60643560048181013592830184900484028501840190955281845261018094600160a060020a03813581169560248035909216956044359536956084940191819084018382808284375094975061042c9650505050505050565b604080517fffffffff000000000000000000000000000000000000000000000000000000009092168252519081900360200190f35b3480156101c157600080fd5b506101ca610470565b60408051918252519081900360200190f35b3480156101e857600080fd5b506101f7600435602435610698565b60408051600160a060020a039092168252519081900360200190f35b34801561021f57600080fd5b506101ca6106be565b34801561023457600080fd5b506100f46106c4565b34801561024957600080fd5b506101f7610730565b34801561025e57600080fd5b506101f761073f565b34801561027357600080fd5b506100f460043560243561074e565b34801561028e57600080fd5b506102976107a6565b604051808060200180602001838103835285818151815260200191508051906020019060200280838360005b838110156102db5781810151838201526020016102c3565b50505050905001838103825284818151815260200191508051906020019060200280838360005b8381101561031a578181015183820152602001610302565b5050505090500194505050505060405180910390f35b34801561033c57600080fd5b506100f4600435602435600160a060020a0360443516610a6b565b34801561036357600080fd5b506100f4600435602435610a7b565b34801561037e57600080fd5b50610297610a86565b34801561039357600080fd5b506101ca600435602435610d2c565b3480156103ae57600080fd5b506101ca610d49565b3480156103c357600080fd5b506100f4600160a060020a0360043516610d4f565b600054600160a060020a031633146103ef57600080fd5b600455565b6000828152600160209081526040808320848452909152902054600160a060020a0316331415610428576104288282610d72565b5050565b600554600090600160a060020a0316331461044657600080fd5b507f150b7a0200000000000000000000000000000000000000000000000000000000949350505050565b600554604080517f70a08231000000000000000000000000000000000000000000000000000000008152306004820152905160009283928392839283928392600160a060020a03909216916370a082319160248082019260209290919082900301818787803b1580156104e257600080fd5b505af11580156104f6573d6000803e3d6000fd5b505050506040513d602081101561050c57600080fd5b50519450600091508190505b8481101561068f57600554604080517f2f745c59000000000000000000000000000000000000000000000000000000008152306004820152602481018490529051600160a060020a0390921691637efd9112918391632f745c59916044808201926020929091908290030181600087803b15801561059557600080fd5b505af11580156105a9573d6000803e3d6000fd5b505050506040513d60208110156105bf57600080fd5b50516040805160e060020a63ffffffff8516028152600481019290925280516024808401938290030181600087803b1580156105fa57600080fd5b505af115801561060e573d6000803e3d6000fd5b505050506040513d604081101561062457600080fd5b50805160209182015160008281526001845260408082208383529094529290922054909550909350600160a060020a03161580159061067b5750600084815260026020908152604080832086845290915290205442115b15610687576001909101905b600101610518565b50949350505050565b6001602090815260009283526040808420909152908252902054600160a060020a031681565b60035481565b600054600160a060020a031633146106db57600080fd5b60008054604051600160a060020a03909116917ff8df31144d9c2f0f6b59d69b8b98abd5459d07f2742c4df920b25aae33c6482091a26000805473ffffffffffffffffffffffffffffffffffffffff19169055565b600554600160a060020a031681565b600054600160a060020a031681565b6000828152600160209081526040808320848452909152902054600160a060020a0316158015906107975750600082815260026020908152604080832084845290915290205442115b15610428576104288282610d72565b600554604080517f70a082310000000000000000000000000000000000000000000000000000000081523060048201529051606092839260009283928392839283928392600160a060020a03909116916370a082319160248082019260209290919082900301818787803b15801561081d57600080fd5b505af1158015610831573d6000803e3d6000fd5b505050506040513d602081101561084757600080fd5b505160035460408051918303808352602081810284010190915291975090955060009450858015610882578160200160208202803883390190505b509750846040519080825280602002602001820160405280156108af578160200160208202803883390190505b509650600090505b85811015610a6157600554604080517f2f745c59000000000000000000000000000000000000000000000000000000008152306004820152602481018490529051600160a060020a0390921691637efd9112918391632f745c59916044808201926020929091908290030181600087803b15801561093457600080fd5b505af1158015610948573d6000803e3d6000fd5b505050506040513d602081101561095e57600080fd5b50516040805160e060020a63ffffffff8516028152600481019290925280516024808401938290030181600087803b15801561099957600080fd5b505af11580156109ad573d6000803e3d6000fd5b505050506040513d60408110156109c357600080fd5b50805160209182015160008281526001845260408082208383529094529290922054909450909250600160a060020a031615801590610a1a5750600083815260026020908152604080832085845290915290205442105b15610a5957828885815181101515610a2e57fe5b6020908102909101015286518290889086908110610a4857fe5b602090810290910101526001909301925b6001016108b7565b5050505050509091565b610a76838383610f08565b505050565b610428828233610f08565b600554604080517f70a08231000000000000000000000000000000000000000000000000000000008152306004820152905160609283926000928392839283928792839285928392600160a060020a0316916370a0823191602480830192602092919082900301818787803b158015610afe57600080fd5b505af1158015610b12573d6000803e3d6000fd5b505050506040513d6020811015610b2857600080fd5b5051600354604080519183038083526020818102840101909152919950909750878015610b5f578160200160208202803883390190505b50935086604051908082528060200260200182016040528015610b8c578160200160208202803883390190505b50925060009150600090505b87811015610d1d57600554604080517f2f745c59000000000000000000000000000000000000000000000000000000008152306004820152602481018490529051600160a060020a0390921691637efd9112918391632f745c59916044808201926020929091908290030181600087803b158015610c1557600080fd5b505af1158015610c29573d6000803e3d6000fd5b505050506040513d6020811015610c3f57600080fd5b50516040805160e060020a63ffffffff8516028152600481019290925280516024808401938290030181600087803b158015610c7a57600080fd5b505af1158015610c8e573d6000803e3d6000fd5b505050506040513d6040811015610ca457600080fd5b50805160209182015160008281526001845260408082208383529094529290922054909750909550600160a060020a03161515610d1557858483815181101515610cea57fe5b6020908102909101015282518590849084908110610d0457fe5b602090810290910101526001909101905b600101610b98565b50919890975095505050505050565b600260209081526000928352604080842090915290825290205481565b60045481565b600054600160a060020a03163314610d6657600080fd5b610d6f81611190565b50565b60008281526001602090815260408083208484528252808320805473ffffffffffffffffffffffffffffffffffffffff19811690915585845260028352818420858552835281842084905560055482517f6fb7e58800000000000000000000000000000000000000000000000000000000815260048101889052602481018790529251600160a060020a0392831695919092169363b0b02c60938593636fb7e58893604480840194938390030190829087803b158015610e3157600080fd5b505af1158015610e45573d6000803e3d6000fd5b505050506040513d6020811015610e5b57600080fd5b50516040805160e060020a63ffffffff85160281526004810192909252600060248301819052905160448084019382900301818387803b158015610e9e57600080fd5b505af1158015610eb2573d6000803e3d6000fd5b5050600380546000190190555050604080514281529051600160a060020a03831691849186917f80705a022c52f86b804689d5efd3442b8dbf2960dcd21373ee60e40284fd1dc2919081900360200190a4505050565b6000838152600160209081526040808320858452909152812054600160a060020a031615610fc2576000848152600260209081526040808320868452909152902054421115610f5b57610f5b8484610d72565b604080517f08c379a000000000000000000000000000000000000000000000000000000000815260206004820152600e60248201527f416c72656164792072656e746564000000000000000000000000000000000000604482015290519081900360640190fd5b600554604080517f6fb7e58800000000000000000000000000000000000000000000000000000000815260048101879052602481018690529051600160a060020a0390921691636fb7e588916044808201926020929091908290030181600087803b15801561103057600080fd5b505af1158015611044573d6000803e3d6000fd5b505050506040513d602081101561105a57600080fd5b505160008581526001602081815260408084208885528252808420805473ffffffffffffffffffffffffffffffffffffffff1916600160a060020a03898116918217909255600480548c8852600286528488208c8952909552838720429095019094556003805490950190945560055482517fb0b02c6000000000000000000000000000000000000000000000000000000000815293840187905260248401949094529051949550919091169263b0b02c609260448084019391929182900301818387803b15801561112b57600080fd5b505af115801561113f573d6000803e3d6000fd5b5050505081600160a060020a031683857f28f400e6c00626a967815c9a9feb0cc4c0e2b9e7eb89c9882de589fdb2e6b08e60045442016040518082815260200191505060405180910390a450505050565b600160a060020a03811615156111a557600080fd5b60008054604051600160a060020a03808516939216917f8be0079c531659141344cd1fd0a4f28419497f9722a3daafe3b4186f6b6457e091a36000805473ffffffffffffffffffffffffffffffffffffffff1916600160a060020a03929092169190911790555600a165627a7a72305820bebceb1f005c9790580413f76dd60471e3c18d293dfe7ab2040b5af87e247c890029",
  "source": "pragma solidity ^0.4.24;\n\nimport \"openzeppelin-solidity/contracts/ownership/Ownable.sol\";\nimport \"openzeppelin-solidity/contracts/token/ERC721/ERC721.sol\";\nimport \"openzeppelin-solidity/contracts/token/ERC721/ERC721Receiver.sol\";\n\nimport \"./ILANDGiveaway.sol\";\n\ncontract LAND721 is ERC721 {\n    function encodeTokenId(int x, int y) external pure returns (uint256);\n    function decodeTokenId(uint value) external pure returns (int, int);\n    function setUpdateOperator(uint tokenId, address beneficiary) external pure;\n}\n\ncontract LANDGiveaway is ILANDGiveaway, Ownable, ERC721Receiver {\n\n    mapping (int => mapping (int => address)) public rentedTo;\n    mapping (int => mapping (int => uint)) public expires;\n\n    uint256 public rentedLands;\n    uint256 public rentTime = 60 * 60 * 24;\n\n    LAND721 public land = LAND721(0x09eA84f780CFC6B10bAFE7B26c8F7B1f3D2DA112);\n\n    event Rented (\n        int indexed x,\n        int indexed y,\n        address indexed beneficiary,\n        uint untilTime\n    );\n    event Returned (\n        int indexed x,\n        int indexed y,\n        address indexed beneficiary,\n        uint when\n    );\n\n    function availableLand() external view returns (int[] memory, int[] memory) {\n        uint balance = land.balanceOf(this);\n        uint amount = balance - rentedLands;\n\n        int x;\n        int y;\n\n        int[] memory xs = new int[](amount);\n        int[] memory ys = new int[](amount);\n\n        uint count = 0;\n        for (uint index = 0; index < balance; index++) {\n            (x, y) = land.decodeTokenId(land.tokenOfOwnerByIndex(this, index));\n            if (rentedTo[x][y] == 0) {\n                xs[count] = x;\n                ys[count] = y;\n                count++;\n            }\n        }\n        return (xs, ys);\n    }\n\n    function getLand(int x, int y) external {\n        _getLand(x, y, msg.sender);\n    }\n    function getLand(int x, int y, address beneficiary) external {\n        _getLand(x, y, beneficiary);\n    }\n\n    function _getLand(int x, int y, address beneficiary) internal {\n        if (rentedTo[x][y] != 0) {\n            if (expires[x][y] < now) {\n                _reclaimLand(x, y);\n            }\n            revert('Already rented');\n        }\n        uint tokenId = land.encodeTokenId(x, y);\n\n        rentedTo[x][y] = beneficiary;\n        expires[x][y] = now + rentTime;\n        rentedLands += 1;\n        land.setUpdateOperator(tokenId, beneficiary);\n\n\t\temit Rented(x, y, beneficiary, now + rentTime);\n    }\n\n    function setRentTime(uint time) external onlyOwner {\n        rentTime = time;\n    }\n\n    function reclaimableLand() external view returns (uint) {\n        uint balance = land.balanceOf(this);\n\n        int x;\n        int y;\n\n        uint count = 0;\n        for (uint index = 0; index < balance; index++) {\n            (x, y) = land.decodeTokenId(land.tokenOfOwnerByIndex(this, index));\n            if (rentedTo[x][y] != 0 && expires[x][y] < now) {\n                count++;\n            }\n        }\n        return count;\n    }\n\n    function reclaimLand(int x, int y) external {\n        if (rentedTo[x][y] != 0 && expires[x][y] < now) {\n        \t_reclaimLand(x, y);\n        }\n    }\n\n    function _reclaimLand(int x, int y) internal {\n\t\taddress beneficiary = rentedTo[x][y];\n\n        rentedTo[x][y] = 0;\n        expires[x][y] = 0;\n        land.setUpdateOperator(land.encodeTokenId(x, y), 0);\n        rentedLands -= 1;\n\n\t\temit Returned(x, y, beneficiary, now);\n    }\n\n\tfunction returnLand(int x, int y) public {\n\t\tif (rentedTo[x][y] == msg.sender) {\n\t\t\t_reclaimLand(x, y);\n\t\t}\n\t} \n\n    function rentedLand() external view returns (int[] memory xs, int[] memory ys) {\n        uint balance = land.balanceOf(this);\n        uint amount = balance - rentedLands;\n\n        uint count = 0;\n        int x;\n        int y;\n\n        xs = new int[](amount);\n        ys = new int[](amount);\n\n        for (uint index = 0; index < balance; index++) {\n            (x, y) = land.decodeTokenId(land.tokenOfOwnerByIndex(this, index));\n            if (rentedTo[x][y] != 0 && expires[x][y] > now) {\n                xs[count] = x;\n                ys[count] = y;\n                count++;\n            }\n        }\n        return (xs, ys);\n    }\n\n    function onERC721Received(\n        address,\n        address,\n        uint256,\n        bytes\n    )\n        public\n        returns (bytes4)\n    {\n        require(msg.sender == address(land));\n        return ERC721_RECEIVED;\n    }\n}\n",
  "sourcePath": "/usr/src/app/contracts/LANDGiveaway.sol",
  "compiler": {
    "name": "solc",
    "version": "0.4.24+commit.e67f0147.Emscripten.clang"
  },
  "schemaVersion": "2.0.1",
  "updatedAt": "2018-09-23T14:37:10.599Z"
}