{
  "contractName": "LANDGiveaway",
  "abi": [
    {
      "constant": true,
      "inputs": [
        {
          "name": "",
          "type": "int256"
        },
        {
          "name": "",
          "type": "int256"
        }
      ],
      "name": "rentedTo",
      "outputs": [
        {
          "name": "",
          "type": "address"
        }
      ],
      "payable": false,
      "stateMutability": "view",
      "type": "function"
    },
    {
      "constant": true,
      "inputs": [],
      "name": "rentedLands",
      "outputs": [
        {
          "name": "",
          "type": "uint256"
        }
      ],
      "payable": false,
      "stateMutability": "view",
      "type": "function"
    },
    {
      "constant": false,
      "inputs": [],
      "name": "renounceOwnership",
      "outputs": [],
      "payable": false,
      "stateMutability": "nonpayable",
      "type": "function"
    },
    {
      "constant": true,
      "inputs": [],
      "name": "land",
      "outputs": [
        {
          "name": "",
          "type": "address"
        }
      ],
      "payable": false,
      "stateMutability": "view",
      "type": "function"
    },
    {
      "constant": true,
      "inputs": [],
      "name": "owner",
      "outputs": [
        {
          "name": "",
          "type": "address"
        }
      ],
      "payable": false,
      "stateMutability": "view",
      "type": "function"
    },
    {
      "constant": true,
      "inputs": [
        {
          "name": "",
          "type": "int256"
        },
        {
          "name": "",
          "type": "int256"
        }
      ],
      "name": "expires",
      "outputs": [
        {
          "name": "",
          "type": "uint256"
        }
      ],
      "payable": false,
      "stateMutability": "view",
      "type": "function"
    },
    {
      "constant": true,
      "inputs": [],
      "name": "rentTime",
      "outputs": [
        {
          "name": "",
          "type": "uint256"
        }
      ],
      "payable": false,
      "stateMutability": "view",
      "type": "function"
    },
    {
      "constant": false,
      "inputs": [
        {
          "name": "_newOwner",
          "type": "address"
        }
      ],
      "name": "transferOwnership",
      "outputs": [],
      "payable": false,
      "stateMutability": "nonpayable",
      "type": "function"
    },
    {
      "anonymous": false,
      "inputs": [
        {
          "indexed": true,
          "name": "previousOwner",
          "type": "address"
        }
      ],
      "name": "OwnershipRenounced",
      "type": "event"
    },
    {
      "anonymous": false,
      "inputs": [
        {
          "indexed": true,
          "name": "previousOwner",
          "type": "address"
        },
        {
          "indexed": true,
          "name": "newOwner",
          "type": "address"
        }
      ],
      "name": "OwnershipTransferred",
      "type": "event"
    },
    {
      "constant": true,
      "inputs": [],
      "name": "availableLand",
      "outputs": [
        {
          "name": "",
          "type": "int256[]"
        },
        {
          "name": "",
          "type": "int256[]"
        }
      ],
      "payable": false,
      "stateMutability": "view",
      "type": "function"
    },
    {
      "constant": false,
      "inputs": [
        {
          "name": "x",
          "type": "int256"
        },
        {
          "name": "y",
          "type": "int256"
        },
        {
          "name": "beneficiary",
          "type": "address"
        }
      ],
      "name": "getLand",
      "outputs": [],
      "payable": false,
      "stateMutability": "nonpayable",
      "type": "function"
    },
    {
      "constant": false,
      "inputs": [
        {
          "name": "x",
          "type": "int256"
        },
        {
          "name": "y",
          "type": "int256"
        }
      ],
      "name": "getLand",
      "outputs": [],
      "payable": false,
      "stateMutability": "nonpayable",
      "type": "function"
    },
    {
      "constant": false,
      "inputs": [
        {
          "name": "time",
          "type": "uint256"
        }
      ],
      "name": "setRentTime",
      "outputs": [],
      "payable": false,
      "stateMutability": "nonpayable",
      "type": "function"
    },
    {
      "constant": true,
      "inputs": [],
      "name": "reclaimableLand",
      "outputs": [
        {
          "name": "",
          "type": "uint256"
        }
      ],
      "payable": false,
      "stateMutability": "view",
      "type": "function"
    },
    {
      "constant": false,
      "inputs": [
        {
          "name": "x",
          "type": "int256"
        },
        {
          "name": "y",
          "type": "int256"
        }
      ],
      "name": "reclaimLand",
      "outputs": [],
      "payable": false,
      "stateMutability": "nonpayable",
      "type": "function"
    },
    {
      "constant": true,
      "inputs": [],
      "name": "rentedLand",
      "outputs": [
        {
          "name": "xs",
          "type": "int256[]"
        },
        {
          "name": "ys",
          "type": "int256[]"
        }
      ],
      "payable": false,
      "stateMutability": "view",
      "type": "function"
    },
    {
      "constant": false,
      "inputs": [
        {
          "name": "",
          "type": "address"
        },
        {
          "name": "",
          "type": "address"
        },
        {
          "name": "",
          "type": "uint256"
        },
        {
          "name": "",
          "type": "bytes"
        }
      ],
      "name": "onERC721Received",
      "outputs": [
        {
          "name": "",
          "type": "bytes4"
        }
      ],
      "payable": false,
      "stateMutability": "nonpayable",
      "type": "function"
    }
  ],
  "bytecode": "0x60806040526201518060045560058054600160a060020a03199081167309ea84f780cfc6b10bafe7b26c8f7b1f3d2da11217909155600080549091163317905561114e8061004e6000396000f3006080604052600436106100cc5763ffffffff60e060020a6000350416630ccf30f181146100d1578063150b7a02146100eb5780631d6477e11461018f57806324ea4410146101b65780634abc31f6146101ed578063715018a6146102025780638c980129146102175780638da5cb5b1461022c5780639cef887314610241578063a03df0511461025c578063bc48f4be1461030a578063ca5c7a3414610331578063cb9a5edd1461034c578063cedeafb914610361578063e3bbfd3f1461037c578063f2fde38b14610391575b600080fd5b3480156100dd57600080fd5b506100e96004356103b2565b005b3480156100f757600080fd5b50604080516020601f60643560048181013592830184900484028501840190955281845261015a94600160a060020a0381358116956024803590921695604435953695608494019181908401838280828437509497506103ce9650505050505050565b604080517fffffffff000000000000000000000000000000000000000000000000000000009092168252519081900360200190f35b34801561019b57600080fd5b506101a4610412565b60408051918252519081900360200190f35b3480156101c257600080fd5b506101d160043560243561063a565b60408051600160a060020a039092168252519081900360200190f35b3480156101f957600080fd5b506101a4610660565b34801561020e57600080fd5b506100e9610666565b34801561022357600080fd5b506101d16106d2565b34801561023857600080fd5b506101d16106e1565b34801561024d57600080fd5b506100e96004356024356106f0565b34801561026857600080fd5b506102716106fe565b604051808060200180602001838103835285818151815260200191508051906020019060200280838360005b838110156102b557818101518382015260200161029d565b50505050905001838103825284818151815260200191508051906020019060200280838360005b838110156102f45781810151838201526020016102dc565b5050505090500194505050505060405180910390f35b34801561031657600080fd5b506100e9600435602435600160a060020a03604435166109c3565b34801561033d57600080fd5b506100e96004356024356109d3565b34801561035857600080fd5b506102716109de565b34801561036d57600080fd5b506101a4600435602435610c84565b34801561038857600080fd5b506101a4610ca1565b34801561039d57600080fd5b506100e9600160a060020a0360043516610ca7565b600054600160a060020a031633146103c957600080fd5b600455565b600554600090600160a060020a031633146103e857600080fd5b507f150b7a0200000000000000000000000000000000000000000000000000000000949350505050565b600554604080517f70a08231000000000000000000000000000000000000000000000000000000008152306004820152905160009283928392839283928392600160a060020a03909216916370a082319160248082019260209290919082900301818787803b15801561048457600080fd5b505af1158015610498573d6000803e3d6000fd5b505050506040513d60208110156104ae57600080fd5b50519450600091508190505b8481101561063157600554604080517f2f745c59000000000000000000000000000000000000000000000000000000008152306004820152602481018490529051600160a060020a0390921691637efd9112918391632f745c59916044808201926020929091908290030181600087803b15801561053757600080fd5b505af115801561054b573d6000803e3d6000fd5b505050506040513d602081101561056157600080fd5b50516040805160e060020a63ffffffff8516028152600481019290925280516024808401938290030181600087803b15801561059c57600080fd5b505af11580156105b0573d6000803e3d6000fd5b505050506040513d60408110156105c657600080fd5b50805160209182015160008281526001845260408082208383529094529290922054909550909350600160a060020a03161580159061061d5750600084815260026020908152604080832086845290915290205442115b15610629576001909101905b6001016104ba565b50949350505050565b6001602090815260009283526040808420909152908252902054600160a060020a031681565b60035481565b600054600160a060020a0316331461067d57600080fd5b60008054604051600160a060020a03909116917ff8df31144d9c2f0f6b59d69b8b98abd5459d07f2742c4df920b25aae33c6482091a26000805473ffffffffffffffffffffffffffffffffffffffff19169055565b600554600160a060020a031681565b600054600160a060020a031681565b6106fa8282610cca565b5050565b600554604080517f70a082310000000000000000000000000000000000000000000000000000000081523060048201529051606092839260009283928392839283928392600160a060020a03909116916370a082319160248082019260209290919082900301818787803b15801561077557600080fd5b505af1158015610789573d6000803e3d6000fd5b505050506040513d602081101561079f57600080fd5b5051600354604080519183038083526020818102840101909152919750909550600094508580156107da578160200160208202803883390190505b50975084604051908082528060200260200182016040528015610807578160200160208202803883390190505b509650600090505b858110156109b957600554604080517f2f745c59000000000000000000000000000000000000000000000000000000008152306004820152602481018490529051600160a060020a0390921691637efd9112918391632f745c59916044808201926020929091908290030181600087803b15801561088c57600080fd5b505af11580156108a0573d6000803e3d6000fd5b505050506040513d60208110156108b657600080fd5b50516040805160e060020a63ffffffff8516028152600481019290925280516024808401938290030181600087803b1580156108f157600080fd5b505af1158015610905573d6000803e3d6000fd5b505050506040513d604081101561091b57600080fd5b50805160209182015160008281526001845260408082208383529094529290922054909450909250600160a060020a0316158015906109725750600083815260026020908152604080832085845290915290205442105b156109b15782888581518110151561098657fe5b60209081029091010152865182908890869081106109a057fe5b602090810290910101526001909301925b60010161080f565b5050505050509091565b6109ce838383610e64565b505050565b6106fa828233610e64565b600554604080517f70a08231000000000000000000000000000000000000000000000000000000008152306004820152905160609283926000928392839283928792839285928392600160a060020a0316916370a0823191602480830192602092919082900301818787803b158015610a5657600080fd5b505af1158015610a6a573d6000803e3d6000fd5b505050506040513d6020811015610a8057600080fd5b5051600354604080519183038083526020818102840101909152919950909750878015610ab7578160200160208202803883390190505b50935086604051908082528060200260200182016040528015610ae4578160200160208202803883390190505b50925060009150600090505b87811015610c7557600554604080517f2f745c59000000000000000000000000000000000000000000000000000000008152306004820152602481018490529051600160a060020a0390921691637efd9112918391632f745c59916044808201926020929091908290030181600087803b158015610b6d57600080fd5b505af1158015610b81573d6000803e3d6000fd5b505050506040513d6020811015610b9757600080fd5b50516040805160e060020a63ffffffff8516028152600481019290925280516024808401938290030181600087803b158015610bd257600080fd5b505af1158015610be6573d6000803e3d6000fd5b505050506040513d6040811015610bfc57600080fd5b50805160209182015160008281526001845260408082208383529094529290922054909750909550600160a060020a03161515610c6d57858483815181101515610c4257fe5b6020908102909101015282518590849084908110610c5c57fe5b602090810290910101526001909101905b600101610af0565b50919890975095505050505050565b600260209081526000928352604080842090915290825290205481565b60045481565b600054600160a060020a03163314610cbe57600080fd5b610cc7816110a5565b50565b6000828152600160209081526040808320848452909152902054600160a060020a031615801590610d135750600082815260026020908152604080832084845290915290205442115b156106fa5760008281526001602090815260408083208484528252808320805473ffffffffffffffffffffffffffffffffffffffff1916905584835260028252808320848452825280832083905560055481517f6fb7e58800000000000000000000000000000000000000000000000000000000815260048101879052602481018690529151600160a060020a039091169363b0b02c60938593636fb7e5889360448083019491928390030190829087803b158015610dd157600080fd5b505af1158015610de5573d6000803e3d6000fd5b505050506040513d6020811015610dfb57600080fd5b50516040805160e060020a63ffffffff85160281526004810192909252600060248301819052905160448084019382900301818387803b158015610e3e57600080fd5b505af1158015610e52573d6000803e3d6000fd5b50506003805460001901905550505050565b6000838152600160209081526040808320858452909152812054600160a060020a031615610f1e576000848152600260209081526040808320868452909152902054421115610eb757610eb78484610cca565b604080517f08c379a000000000000000000000000000000000000000000000000000000000815260206004820152600e60248201527f416c72656164792072656e746564000000000000000000000000000000000000604482015290519081900360640190fd5b600554604080517f6fb7e58800000000000000000000000000000000000000000000000000000000815260048101879052602481018690529051600160a060020a0390921691636fb7e588916044808201926020929091908290030181600087803b158015610f8c57600080fd5b505af1158015610fa0573d6000803e3d6000fd5b505050506040513d6020811015610fb657600080fd5b505160008581526001602081815260408084208885528252808420805473ffffffffffffffffffffffffffffffffffffffff1916600160a060020a03898116918217909255600480548c8852600286528488208c8952909552838720429095019094556003805490950190945560055482517fb0b02c6000000000000000000000000000000000000000000000000000000000815293840187905260248401949094529051949550919091169263b0b02c609260448084019391929182900301818387803b15801561108757600080fd5b505af115801561109b573d6000803e3d6000fd5b5050505050505050565b600160a060020a03811615156110ba57600080fd5b60008054604051600160a060020a03808516939216917f8be0079c531659141344cd1fd0a4f28419497f9722a3daafe3b4186f6b6457e091a36000805473ffffffffffffffffffffffffffffffffffffffff1916600160a060020a03929092169190911790555600a165627a7a723058206bc140027b0fd3984ce451cf608bf288e862da7115e6700413fde6f92e27200f0029",
  "source": "pragma solidity ^0.4.24;\n\nimport \"openzeppelin-solidity/contracts/ownership/Ownable.sol\";\nimport \"openzeppelin-solidity/contracts/token/ERC721/ERC721.sol\";\nimport \"openzeppelin-solidity/contracts/token/ERC721/ERC721Receiver.sol\";\n\nimport \"./ILANDGiveaway.sol\";\n\ncontract LAND721 is ERC721 {\n    function encodeTokenId(int x, int y) external pure returns (uint256);\n    function decodeTokenId(uint value) external pure returns (int, int);\n    function setUpdateOperator(uint tokenId, address beneficiary) external pure;\n}\n\ncontract LANDGiveaway is ILANDGiveaway, Ownable, ERC721Receiver {\n\n    mapping (int => mapping (int => address)) public rentedTo;\n    mapping (int => mapping (int => uint)) public expires;\n\n    uint256 public rentedLands;\n    uint256 public rentTime = 60 * 60 * 24;\n\n    LAND721 public land = LAND721(0x09eA84f780CFC6B10bAFE7B26c8F7B1f3D2DA112);\n\n    function availableLand() external view returns (int[] memory, int[] memory) {\n        uint balance = land.balanceOf(this);\n        uint amount = balance - rentedLands;\n\n        int x;\n        int y;\n\n        int[] memory xs = new int[](amount);\n        int[] memory ys = new int[](amount);\n\n        uint count = 0;\n        for (uint index = 0; index < balance; index++) {\n            (x, y) = land.decodeTokenId(land.tokenOfOwnerByIndex(this, index));\n            if (rentedTo[x][y] == 0) {\n                xs[count] = x;\n                ys[count] = y;\n                count++;\n            }\n        }\n        return (xs, ys);\n    }\n\n    function getLand(int x, int y) external {\n        _getLand(x, y, msg.sender);\n    }\n    function getLand(int x, int y, address beneficiary) external {\n        _getLand(x, y, beneficiary);\n    }\n\n    function _getLand(int x, int y, address beneficiary) internal {\n        if (rentedTo[x][y] != 0) {\n            if (expires[x][y] < now) {\n                _reclaimLand(x, y);\n            }\n            revert('Already rented');\n        }\n        uint tokenId = land.encodeTokenId(x, y);\n\n        rentedTo[x][y] = beneficiary;\n        expires[x][y] = now + rentTime;\n        rentedLands += 1;\n        land.setUpdateOperator(tokenId, beneficiary);\n    }\n\n    function setRentTime(uint time) external onlyOwner {\n        rentTime = time;\n    }\n\n    function reclaimableLand() external view returns (uint) {\n        uint balance = land.balanceOf(this);\n\n        int x;\n        int y;\n\n        uint count = 0;\n        for (uint index = 0; index < balance; index++) {\n            (x, y) = land.decodeTokenId(land.tokenOfOwnerByIndex(this, index));\n            if (rentedTo[x][y] != 0 && expires[x][y] < now) {\n                count++;\n            }\n        }\n        return count;\n    }\n\n    function reclaimLand(int x, int y) external {\n        _reclaimLand(x, y);\n    }\n\n    function _reclaimLand(int x, int y) internal {\n        if (rentedTo[x][y] != 0 && expires[x][y] < now) {\n            rentedTo[x][y] = 0;\n            expires[x][y] = 0;\n            land.setUpdateOperator(land.encodeTokenId(x, y), 0);\n            rentedLands -= 1;\n        }\n    }\n\n    function rentedLand() external view returns (int[] memory xs, int[] memory ys) {\n        uint balance = land.balanceOf(this);\n        uint amount = balance - rentedLands;\n\n        uint count = 0;\n        int x;\n        int y;\n\n        xs = new int[](amount);\n        ys = new int[](amount);\n\n        for (uint index = 0; index < balance; index++) {\n            (x, y) = land.decodeTokenId(land.tokenOfOwnerByIndex(this, index));\n            if (rentedTo[x][y] != 0 && expires[x][y] > now) {\n                xs[count] = x;\n                ys[count] = y;\n                count++;\n            }\n        }\n        return (xs, ys);\n    }\n\n    function onERC721Received(\n        address,\n        address,\n        uint256,\n        bytes\n    )\n        public\n        returns (bytes4)\n    {\n        require(msg.sender == address(land));\n        return ERC721_RECEIVED;\n    }\n}\n",
  "sourcePath": "/usr/src/app/contracts/LANDGiveaway.sol",
  "compiler": {
    "name": "solc",
    "version": "0.4.24+commit.e67f0147.Emscripten.clang"
  },
  "schemaVersion": "2.0.1",
  "updatedAt": "2018-09-23T13:31:48.999Z"
}